:100000000C942A000C946D0E0C94A00E0C94D30E3C
:100010000C9447000C9447000C9447000C94470044
:100020000C9447000C9447000C9447000C94430731
:100030000C9447000C9447000C9447000C94470024
:100040000C9447000C9447000C9447000C94470014
:100050000C94470011241FBECFE5D8E0DEBFCDBF12
:1000600010E0A0E6B0E0EEE5F6E302C005900D92E8
:10007000AC39B107D9F710E0ACE9B0E001C01D928E
:10008000A83AB107E1F70E94F3180C942D1B0C94C9
:100090000000EF92FF920F931F937B018C0120E0F1
:1000A00030E040E05FE40E94490388238CF0C801FF
:1000B000B70120E030E040E05FE40E94C1010E940F
:1000C000A9039B01AC01205030404040504806C07D
:1000D000C801B7010E94A9039B01AC01B901CA0183
:1000E0001F910F91FF90EF900895A0E0B0E0EBE733
:1000F000F0E00C94F61ADC012B01FA019C9192308D
:1001000008F439C1EB018881823008F433C194309E
:1001100069F4843009F02FC111969C91119789815F
:10012000981709F428C1A3E9B0E025C1843009F487
:1001300021C18230A9F4923009F01DC19A01AD01AC
:1001400088E0EA010990AE01E90109929E0181501F
:10015000C1F7E201898111969C918923818308C1AD
:10016000923009F407C112962D903C901397EB0141
:100170008A819B811496AD90BD90CD90DC901797AD
:10018000EC80FD800E811F819101281B390BB90184
:1001900037FF04C066277727621B730B6032710537
:1001A0000CF061C0121613066CF537014801062EDB
:1001B00004C096948794779467940A94D2F721E0C8
:1001C00030E040E050E004C0220F331F441F551FB1
:1001D0006A95D2F721503040404050402E213F21B7
:1001E00040235123211531054105510521F021E01E
:1001F00030E040E050E079018A01E628F72808293C
:1002000019293CC0232BD1F1260E371E350146019A
:10021000062E04C096948794779467940A94D2F734
:1002200021E030E040E050E004C0220F331F441FC3
:10023000551F6A95D2F721503040404050402A2146
:100240003B214C215D21211531054105510521F04E
:1002500021E030E040E050E059016A01A628B728CB
:10026000C828D9280BC0821593052CF01C01AA249C
:10027000BB24650103C0EE24FF24870111969C91E5
:10028000D20111968C91981709F445C0992339F041
:10029000A80197012A193B094C095D0906C0A6016E
:1002A00095012E193F09400B510B57FD08C01182D3
:1002B0003382228224833583468357831DC081E0A5
:1002C00081833382228288279927DC01821B930B4A
:1002D000A40BB50B84839583A683B7830DC0220F2F
:1002E000331F441F551F24833583468357838281E0
:1002F000938101979383828324813581468157813D
:10030000DA01C9010197A109B1098F5F9F4FAF4F72
:10031000BF4328F30BC0918333822282EA0CFB1C7B
:100320000C1D1D1DE482F5820683178383E0808304
:10033000248135814681578157FF1AC0C901AA27F8
:1003400097FDA095BA2F81709070A070B0705695EF
:10035000479537952795822B932BA42BB52B848318
:100360009583A683B7838281938101969383828349
:10037000DF0101C0D201CD01CDB7DEB7E2E10C94BF
:10038000121BA0E2B0E0E7ECF1E00C94021B6983E1
:100390007A838B839C832D833E834F835887E9E048
:1003A000EE2EF12CEC0EFD1ECE010196B7010E943F
:1003B000D2048E010F5E1F4FCE010596B8010E9438
:1003C000D2048A8991E089278A8BC701B801AE01DE
:1003D000475E5F4F0E9475000E94FD03A096E6E015
:1003E0000C941E1BA0E2B0E0E8EFF1E00C94021BBD
:1003F00069837A838B839C832D833E834F835887C5
:10040000F9E0EF2EF12CEC0EFD1ECE010196B701A6
:100410000E94D2048E010F5E1F4FCE010596B801D7
:100420000E94D204C701B801AE01475E5F4F0E942F
:1004300075000E94FD03A096E6E00C941E1BA0E24E
:10044000B0E0E5E2F2E00C94F61A69837A838B83DC
:100450009C832D833E834F835887CE010196BE0136
:10046000675F7F4F0E94D204CE010596BE016F5E8A
:100470007F4F0E94D2049985923088F0898982301A
:10048000C8F0943019F4823051F404C0843029F457
:10049000923081F483E990E0C6C0923049F420E0C4
:1004A0009A858A89981321E02A87CE010996BBC0D4
:1004B000823049F420E09A858A89981321E02A8BBA
:1004C000CE014196B0C02D843E844F8458886D88FB
:1004D0007E888F88988CEE24FF248701AA24BB2471
:1004E000650140E050E060E070E0E0E0F0E0C10174
:1004F00081709070892BE9F0E60CF71C081D191D1E
:100500009A01AB012A0D3B1D4C1D5D1D80E090E062
:10051000A0E0B0E0E614F7040805190520F481E036
:1005200090E0A0E0B0E0BA01A901480F591F6A1F8E
:100530007B1FAA0CBB1CCC1CDD1C97FE08C081E0F5
:1005400090E0A0E0B0E0A82AB92ACA2ADB2A3196B6
:10055000E032F10549F0660C771C881C991C569412
:10056000479437942794C3CFFA85EA892B893C892D
:100570008B859C85280F391F2E5F3F4F17C0CA01FE
:1005800081709070892B61F016950795F794E79428
:1005900080E090E0A0E0B0E8E82AF92A0A2B1B2BC3
:1005A00076956795579547952F5F3F4F77FDE7CF36
:1005B0000CC0440F551F661F771F17FD4160EE0CDE
:1005C000FF1C001F111F21503040403090E05907A0
:1005D00090E0690790E4790760F32B8F3C8FDB0193
:1005E000CA018F779070A070B07080349105A1051A
:1005F000B10561F447FD0AC0E114F10401051105DC
:1006000029F0405C5F4F6F4F7F4F40781A8EFE1786
:1006100011F081E08A8F4D8F5E8F6F8F78A383E01A
:10062000898FCE0149960E94FD03A096E2E10C94C9
:10063000121BA8E1B0E0EFE1F3E00C94021B698328
:100640007A838B839C832D833E834F83588789E0F5
:10065000E82EF12CEC0EFD1ECE010196B7010E9492
:10066000D2048E010F5E1F4FCE010596B8010E9485
:10067000D2048985823040F08989823028F0C70110
:10068000B8010E944A0501C08FEF6896E6E00C941D
:100690001E1BA8E1B0E0EFE4F3E00C94021B6983B9
:1006A0007A838B839C832D833E834F83588789E095
:1006B000E82EF12CEC0EFD1ECE010196B7010E9432
:1006C000D2048E010F5E1F4FCE010596B8010E9425
:1006D000D2048985823040F08989823028F0C701B0
:1006E000B8010E944A0501C08FEF6896E6E00C94BD
:1006F0001E1BA8E1B0E0EFE7F3E00C94021B698356
:100700007A838B839C832D833E834F83588789E034
:10071000E82EF12CEC0EFD1ECE010196B7010E94D1
:10072000D2048E010F5E1F4FCE010596B8010E94C4
:10073000D2048985823040F08989823028F0C7014F
:10074000B8010E944A0501C081E06896E6E00C9479
:100750001E1BACE0B0E0EFEAF3E00C94061B6983EB
:100760007A838B839C83CE010196BE016B5F7F4FA2
:100770000E94D2048D81823061F1823050F1843048
:1007800021F48E81882351F12EC02F81388537FDC9
:1007900020C06E812F3131051CF06623F9F023C093
:1007A0008EE190E0821B930B29853A854B855C8511
:1007B00004C056954795379527958A95D2F76623B5
:1007C000B1F050954095309521953F4F4F4F5F4F79
:1007D0000EC020E030E040E050E009C02FEF3FEFD6
:1007E0004FEF5FE704C020E030E040E050E8B9019F
:1007F000CA012C96E2E00C94221BDF92EF92FF924A
:100800000F931F93FC01E480F58006811781D1804E
:100810008081823048F480E090E0A0E1B0E0E82AF6
:10082000F92A0A2B1B2BA5C0843009F49FC0823003
:1008300021F4EE24FF24870105C0E114F104010531
:10084000110519F4E0E0F0E096C0628173819FEF3A
:10085000623879070CF05BC022E83FEF261B370BAC
:100860002A3131052CF020E030E040E050E02AC091
:10087000B801A701022E04C0769567955795479554
:100880000A94D2F781E090E0A0E0B0E004C0880FC5
:10089000991FAA1FBB1F2A95D2F70197A109B10979
:1008A0008E219F21A023B1230097A105B10521F03E
:1008B00081E090E0A0E0B0E09A01AB01282B392B59
:1008C0004A2B5B2BDA01C9018F779070A070B07052
:1008D00080349105A105B10539F427FF09C0205CDA
:1008E0003F4F4F4F5F4F04C0215C3F4F4F4F5F4F13
:1008F000E0E0F0E02030A0E03A07A0E04A07A0E402
:100900005A0710F0E1E0F0E079018A0127C0603871
:10091000710564F5FB01E158FF4FD801C7018F77DE
:100920009070A070B07080349105A105B10539F4C4
:10093000E7FE0DC080E490E0A0E0B0E004C08FE3EB
:1009400090E0A0E0B0E0E80EF91E0A1F1B1F17FFA1
:1009500005C016950795F794E794319687E01695AC
:100960000795F794E7948A95D1F705C0EE24FF2404
:100970008701EFEFF0E06E2F679566276795902F60
:100980009F77D794DD24D7948E2F8695492F462BB9
:10099000582F5D29B701CA011F910F91FF90EF9069
:1009A000DF900895FC01DB01408151812281622F9B
:1009B0006F7770E0221F2227221F9381892F880FD3
:1009C000822B282F30E0991F9927991F11969C930D
:1009D000119721153105A9F54115510561057105DD
:1009E00011F482E037C082E89FEF13969C938E93B8
:1009F00012979A01AB0167E0220F331F441F551F66
:100A00006A95D1F783E08C930DC0220F331F441FEA
:100A1000551F12968D919C911397019713969C9355
:100A20008E931297203080E0380780E0480780E4FA
:100A3000580758F314962D933D934D935C93179755
:100A400008952F3F310579F4411551056105710570
:100A500019F484E08C93089564FF03C081E08C93C3
:100A600012C01C9210C02F57304013963C932E9307
:100A7000129783E08C9387E0440F551F661F771F02
:100A80008A95D1F7706414964D935D936D937C9322
:100A9000179708951F93DC01FB019C91923008F495
:100AA00047C08081823008F443C0943051F41196DD
:100AB0001C91843099F58181682F70E0611B710968
:100AC0003FC0843021F0923031F48230B9F181811D
:100AD000882389F12DC011961C9111978230F1F075
:100AE00081811817D9F412962D913C911397828128
:100AF00093818217930794F028173907BCF0149656
:100B00008D919D910D90BC91A02D248135814681C0
:100B10005781281739074A075B0718F4112341F05A
:100B20000AC082179307A407B50740F4112319F0F0
:100B300061E070E005C06FEF7FEF02C060E070E041
:100B4000CB011F910895DF93CF9300D00F92CDB7C3
:100B5000DEB780E88B8383E390E09A838983ABE2FE
:100B6000B0E0EBE2F0E080818D7F8C93E9E2F0E091
:100B700089818083E0E4F0E089819A81892F992737
:100B80008083ABE2B0E0EBE2F0E080818E7F8C937B
:100B90008B818F7B8B838B818F7E8B838B818F7DF2
:100BA0008B838B8188608B838B8182608B838B812D
:100BB00084608B83AAE2B0E0EAE2F0E080818B7F80
:100BC0008C93E0E4F0E08B818083AAE2B0E0EAE27B
:100BD000F0E0808188608C93AAE2B0E0EAE2F0E085
:100BE000808180618C930F900F900F90CF91DF9157
:100BF0000895DF93CF9300D0CDB7DEB78A831982F3
:100C0000EBE2F0E08081829586958770882F90E0F6
:100C1000817090700097A1F3ECE2F0E08A8180830C
:100C200089810F900F90CF91DF910895DF93CF933B
:100C300000D00F92CDB7DEB79B838A8382E0898391
:100C40008A819B81009761F0EBE2F0E0808188234C
:100C5000DCF7ECE2F0E08081EA81FB81808302C076
:100C600083E0898389810F900F900F90CF91DF915E
:100C70000895DF93CF9300D000D0CDB7DEB79C832B
:100C80008B8384E08A8319828B819C810097A1F1F8
:100C9000EBE2F0E08081829586958770882F90E066
:100CA000817090700097A1F31BC0ACE2B0E0898125
:100CB000282F30E08B819C81FC01E20FF31F8081A3
:100CC0008C93EBE2F0E08081829586958770882F87
:100CD00090E0817090700097A1F389818F5F898384
:100CE0008981282F30E08B819C81FC01E20FF31F6A
:100CF00080818823D1F602C085E08A838A810F90A3
:100D00000F900F900F90CF91DF910895DF93CF93C5
:100D100000D000D00F92CDB7DEB79C838B836D835C
:100D200086E08A8319828B819C810097D1F014C060
:100D3000EBE2F0E080818823DCF78981282F30E026
:100D40008B819C81DC01A20FB31FECE2F0E080817B
:100D50008C9389818F5F898399818D81981740F366
:100D600002C087E08A838A810F900F900F900F90C6
:100D70000F90CF91DF910895DF93CF93CDB7DEB77A
:100D8000E3E5F0E085E08083E9E5F0E083E080835F
:100D9000CF91DF910895DF93CF93CDB7DEB7E3E531
:100DA000F0E08AE78083E9E5F0E083E08083CF919B
:100DB000DF910895DF93CF93CDB7DEB7E3E5F0E0A1
:100DC00082E78083E9E5F0E083E08083CF91DF91E3
:100DD0000895DF93CF930F92CDB7DEB78983ECE50B
:100DE000F0E0898180830F90CF91DF910895DF93A8
:100DF000CF9300D0CDB7DEB79A838983E2E5F0E0E8
:100E00008081882F90E0E981FA81918380830F901F
:100E10000F90CF91DF910895DF93CF93CDB7DEB7D9
:100E2000ECE5F0E08081CF91DF910895DF93CF93DF
:100E300000D00F92CDB7DEB7ECE5F0E08081282F2F
:100E400030E084E690E0AC01249FC001259F900D26
:100E5000349F900D11249B838A838A819B812FEF7D
:100E600030E0B9010E94A51ACB01898394E68981FB
:100E7000592F581B852F898389810F900F900F90D0
:100E8000CF91DF9108951F920F920FB60F92112408
:100E90002F933F934F935F936F937F938F939F9382
:100EA000AF93BF93EF93FF93DF93CF93CDB7DEB7AD
:100EB00080919C0090919D00009729F0E0919C000A
:100EC000F0919D000995CF91DF91FF91EF91BF9136
:100ED000AF919F918F917F916F915F914F913F91D2
:100EE0002F910F900FBE0F901F901895DF93CF9307
:100EF000CDB7DEB7ADE2B0E0EDE2F0E080818E7F0D
:100F00008C93ADE2B0E0EDE2F0E080818D7F8C93D8
:100F1000ADE2B0E0EDE2F0E080818B7F8C93ADE25A
:100F2000B0E0EDE2F0E08081877F8C93ADE2B0E04D
:100F3000EDE2F0E0808180628C93ADE2B0E0EDE222
:100F4000F0E0808180618C93ADE2B0E0EDE2F0E012
:100F5000808180648C93CF91DF910895DF93CF934C
:100F6000CDB7DEB7ADE2B0E0EDE2F0E080818B7F9F
:100F70008C93ADE2B0E0EDE2F0E08081877F8C936E
:100F8000ADE2B0E0EDE2F0E0808180628C93ADE212
:100F9000B0E0EDE2F0E080818F7E8C93ADE2B0E0D6
:100FA000EDE2F0E0808180648C93CF91DF91089531
:100FB000DF93CF9300D000D000D0CDB7DEB78C83C5
:100FC0007E836D831B821A8219828D819E81009798
:100FD000E1F0EFE2F0E08C81808305C089819A81A5
:100FE00001969A838983EEE2F0E08081882334F0D1
:100FF00089819A8123EC8035920780F3EFE2F0E05B
:101000008081ED81FE81808302C081E08B838B81B2
:1010100026960FB6F894DEBF0FBECDBFCF91DF91FD
:101020000895DF93CF9300D000D0CDB7DEB78C8387
:101030001B821A821982EFE2F0E08C81808305C066
:1010400089819A8101969A838983EEE2F0E080811A
:10105000882334F089819A8123EC8035920780F3CC
:101060008B810F900F900F900F90CF91DF9108958B
:10107000DF93CF9300D000D00F92CDB7DEB79D8322
:101080008C831B821A8219828C819D810097C1F00A
:1010900005C089819A8101969A838983EEE2F0E006
:1010A0008081882334F089819A8123EC80359207EE
:1010B00080F3EFE2F0E08081EC81FD81808302C06B
:1010C00081E08B838B810F900F900F900F900F908A
:1010D000CF91DF910895DF93CF93CDB7DEB72897F7
:1010E0000FB6F894DEBF0FBECDBF9E838D83788789
:1010F0006F8382E08C831B821A8219828D819E818C
:10110000009709F43DC08F8198850097C9F12CC0E4
:10111000AFE2B0E08B81282F30E08D819E81FC0111
:10112000E20FF31F80818C9305C089819A8101961B
:101130009A838983EEE2F0E08081882334F089810C
:101140009A8123EC8035920780F38B81282F30E041
:101150008F819885DC01A20FB31FEFE2F0E0808160
:101160008C938B818F5F8B838B81282F30E08D81D7
:101170009E81FC01E20FF31F8081882349F602C0A3
:1011800083E08C838C8128960FB6F894DEBF0FBE67
:10119000CDBFCF91DF910895DF93CF9300D000D0E2
:1011A00000D0CDB7DEB79E838D8382E08C831B8217
:1011B0001A8219828D819E81009769F120C0AFE269
:1011C000B0E08B81282F30E08D819E81FC01E20F01
:1011D000F31F80818C9305C089819A8101969A833F
:1011E0008983EEE2F0E08081882334F089819A815E
:1011F00023EC8035920780F38B818F5F8B838B810B
:10120000282F30E08D819E81FC01E20FF31F808149
:101210008823A9F602C083E08C838C8126960FB6C2
:10122000F894DEBF0FBECDBFCF91DF910895DF935D
:10123000CF93CDB7DEB727970FB6F894DEBF0FBEBA
:10124000CDBF9E838D836F8382E08C831B821A8245
:1012500019828D819E81009729F11FC089819A8111
:1012600001969A838983EEE2F0E08081882334F04E
:1012700089819A8123EC8035920780F38B81282F16
:1012800030E08D819E81DC01A20FB31FEFE2F0E020
:1012900080818C938B818F5F8B839B818F8198174B
:1012A00010F302C083E08C838C8127960FB6F894EC
:1012B000DEBF0FBECDBFCF91DF910895DF93CF93F7
:1012C000CDB7DEB7EAE3F0E08EED8083E7E3F0E050
:1012D0008FEB8083E4E3F0E08FEF8083E1E3F0E0E5
:1012E0008AEF8083EBE3F0E080E28083E8E3F0E0E4
:1012F00080E58083E5E3F0E01082E2E3F0E081E066
:101300008083CF91DF910895DF93CF93CDB7DEB780
:101310002E970FB6F894DEBF0FBECDBF8A836B83C6
:101320004C8319828A81843008F005C18B81883012
:1013300008F001C18A81282F30E03E872D878D85F6
:101340009E858130910509F44FC02D853E85223060
:1013500031052CF48D859E85009771F0EEC02D85AA
:101360003E852230310509F477C08D859E85833016
:10137000910509F4A9C0E1C08C81282F30E03C8799
:101380002B878B859C850097D1F02B853C85213060
:10139000310509F0D2C0AAE3B0E0EAE3F0E08081D1
:1013A000482F8B81282F30E081E090E0022E02C090
:1013B000880F991F0A94E2F7842B8C93BEC0AAE38E
:1013C000B0E0EAE3F0E08081482F8B81282F30E005
:1013D00081E090E0022E02C0880F991F0A94E2F784
:1013E000809584238C93A9C08C81282F30E03A8784
:1013F000298789859A850097D1F029853A852130FA
:10140000310509F09AC0A7E3B0E0E7E3F0E080819E
:10141000482F8B81282F30E081E090E0022E02C01F
:10142000880F991F0A94E2F7842B8C9386C0A7E358
:10143000B0E0E7E3F0E08081482F8B81282F30E097
:1014400081E090E0022E02C0880F991F0A94E2F713
:10145000809584238C9371C08C81282F30E038874D
:101460002F838F8198850097D1F02F813885213087
:10147000310509F062C0A4E3B0E0E4E3F0E080816C
:10148000482F8B81282F30E081E090E0022E02C0AF
:10149000880F991F0A94E2F7842B8C934EC0A4E323
:1014A000B0E0E4E3F0E08081482F8B81282F30E02A
:1014B00081E090E0022E02C0880F991F0A94E2F7A3
:1014C000809584238C9339C08C81282F30E03E8313
:1014D0002D838D819E810097C9F02D813E81213021
:1014E000310559F5A1E3B0E0E1E3F0E08081482F58
:1014F0008B81282F30E081E090E0022E02C0880F1F
:10150000991F0A94E2F7842B8C9317C0A1E3B0E0F3
:10151000E1E3F0E08081482F8B81282F30E081E0EB
:1015200090E0022E02C0880F991F0A94E2F780957E
:1015300084238C9302C081E0898389812E960FB623
:10154000F894DEBF0FBECDBFCF91DF910895DF933A
:10155000CF93CDB7DEB72E970FB6F894DEBF0FBE90
:10156000CDBF8A836B834C8382E089838A818430F8
:1015700008F0EEC18B81883008F0EAC18A81282FFB
:1015800030E03E872D878D859E858130910509F459
:1015900089C02D853E85223031052CF48D859E85B0
:1015A000009771F0D7C12D853E852230310509F4B1
:1015B000EBC08D859E858330910509F457C1CAC162
:1015C0008C81282F30E03C872B878B859C85813050
:1015D0009105B1F02B853C85223031052CF48B85AB
:1015E0009C85009709F1B6C12B853C8522303105D9
:1015F00081F18B859C858330910509F43EC0AAC199
:10160000ABE3B0E0EBE3F0E08081482F8B81282F43
:1016100030E081E090E0022E02C0880F991F0A940A
:10162000E2F7842B8C9396C1ABE3B0E0EBE3F0E000
:101630008081482F8B81282F30E081E090E0022EBE
:1016400002C0880F991F0A94E2F7809584238C9337
:1016500081C1ABE3B0E0EBE3F0E08081482F8B8108
:10166000282F30E081E090E0022E02C0880F991F01
:101670000A94E2F7842B8C936DC1ABE3B0E0EBE30B
:10168000F0E08081482F8B81282F30E081E090E0CE
:10169000022E02C0880F991F0A94E2F780958423D6
:1016A0008C9358C18C81282F30E03A87298789850F
:1016B0009A8581309105B1F029853A85223031052E
:1016C0002CF489859A85009709F144C129853A85CA
:1016D0002230310581F189859A858330910509F49D
:1016E0003EC038C1A8E3B0E0E8E3F0E08081482FD5
:1016F0008B81282F30E081E090E0022E02C0880F1D
:10170000991F0A94E2F7842B8C9324C1A8E3B0E0DC
:10171000E8E3F0E08081482F8B81282F30E081E0E2
:1017200090E0022E02C0880F991F0A94E2F780957C
:1017300084238C930FC1A8E3B0E0E8E3F0E080815C
:10174000482F8B81282F30E081E090E0022E02C0EC
:10175000880F991F0A94E2F7842B8C93FBC0A8E3AF
:10176000B0E0E8E3F0E08081482F8B81282F30E063
:1017700081E090E0022E02C0880F991F0A94E2F7E0
:10178000809584238C93E6C08C81282F30E03887A5
:101790002F838F81988581309105B1F02F81388515
:1017A000223031052CF48F819885009709F1D2C041
:1017B0002F8138852230310581F18F8198858330E2
:1017C000910509F43EC0C6C0A5E3B0E0E5E3F0E052
:1017D0008081482F8B81282F30E081E090E0022E1D
:1017E00002C0880F991F0A94E2F7842B8C93B2C031
:1017F000A5E3B0E0E5E3F0E08081482F8B81282F5E
:1018000030E081E090E0022E02C0880F991F0A9418
:10181000E2F7809584238C939DC0A5E3B0E0E5E3D7
:10182000F0E08081482F8B81282F30E081E090E02C
:10183000022E02C0880F991F0A94E2F7842B8C9322
:1018400089C0A5E3B0E0E5E3F0E08081482F8B811B
:10185000282F30E081E090E0022E02C0880F991F0F
:101860000A94E2F7809584238C9374C08C81282F8E
:1018700030E03E832D838D819E8181309105B1F0D2
:101880002D813E81223031052CF48D819E8100977F
:1018900009F160C02D813E812230310581F18D81B9
:1018A0009E818330910509F43EC054C0A2E3B0E0AC
:1018B000E2E3F0E08081482F8B81282F30E081E047
:1018C00090E0022E02C0880F991F0A94E2F7842B41
:1018D0008C9340C0A2E3B0E0E2E3F0E08081482FC7
:1018E0008B81282F30E081E090E0022E02C0880F2B
:1018F000991F0A94E2F7809584238C932BC0A2E36E
:10190000B0E0E2E3F0E08081482F8B81282F30E0C7
:1019100081E090E0022E02C0880F991F0A94E2F73E
:10192000842B8C9317C0A2E3B0E0E2E3F0E0808167
:10193000482F8B81282F30E081E090E0022E02C0FA
:10194000880F991F0A94E2F7809584238C9302C034
:1019500083E0898389812E960FB6F894DEBF0FBE8F
:10196000CDBFCF91DF910895DF93CF9300D00F9239
:10197000CDB7DEB789838981282F30E03B832A8366
:101980008A819B81009731F02A813B81213031058A
:1019900049F00FC0AFE5B0E0EFE5F0E0808180688E
:1019A0008C9307C0AFE5B0E0EFE5F0E080818F7782
:1019B0008C930F900F900F90CF91DF910895DF934C
:1019C000CF93CDB7DEB72B970FB6F894DEBF0FBE1F
:1019D000CDBF8A836B8319828A81833008F007C167
:1019E0008B81843008F003C18A81282F30E03B8747
:1019F0002A878A859B858130910509F46DC02A85E7
:101A00003B852230310509F4C9C08A859B85009742
:101A100009F0EFC08B81282F30E03987288788852F
:101A200099858130910521F128853985223031054C
:101A30002CF488859985009761F046C02885398502
:101A40002230310521F1888599858330910571F126
:101A50003BC0A5E5B0E0E5E5F0E0808181608C93D6
:101A6000A5E5B0E0E5E5F0E0808182608C932CC0D4
:101A7000A5E5B0E0E5E5F0E080818E7F8C93A5E5FB
:101A8000B0E0E5E5F0E0808182608C931DC0A5E5C3
:101A9000B0E0E5E5F0E080818E7F8C93A5E5B0E0D5
:101AA000E5E5F0E080818D7F8C930EC0A5E5B0E088
:101AB000E5E5F0E0808181608C93A5E5B0E0E5E5A7
:101AC000F0E080818D7F8C93ABE5B0E0EBE5F0E05A
:101AD000808180648C938DC08B81282F30E03F8380
:101AE0002E838E819F818130910521F12E813F814E
:101AF000223031052CF48E819F81009761F046C021
:101B00002E813F812230310521F18E819F818330EA
:101B1000910571F13BC0A5E5B0E0E5E5F0E080811D
:101B200084608C93A5E5B0E0E5E5F0E08081886015
:101B30008C932CC0A5E5B0E0E5E5F0E080818B7FDB
:101B40008C93A5E5B0E0E5E5F0E0808188608C93BA
:101B50001DC0A5E5B0E0E5E5F0E080818B7F8C93CA
:101B6000A5E5B0E0E5E5F0E08081877F8C930EC0CD
:101B7000A5E5B0E0E5E5F0E0808184608C93A5E523
:101B8000B0E0E5E5F0E08081877F8C93ABE5B0E0E5
:101B9000EBE5F0E0808180688C932BC08B81282F4F
:101BA00030E03D832C838C819D81009731F02C8126
:101BB0003D812130310549F010C0A4E5B0E0E4E5F5
:101BC000F0E0808180648C930AC0A4E5B0E0E4E595
:101BD000F0E080818F7B8C9302C081E08983ABE54C
:101BE000B0E0EBE5F0E0808180628C9302C081E0A0
:101BF000898389812B960FB6F894DEBF0FBECDBFC7
:101C0000CF91DF910895DF93CF9300D000D0CDB76F
:101C1000DEB78A8382E089838A81833058F58A819E
:101C2000282F30E03C832B838B819C818130910570
:101C300089F02B813C8122303105A1F08B819C8180
:101C40000097D1F4ABE5B0E0EBE5F0E080818F7B6D
:101C50008C9312C0ABE5B0E0EBE5F0E080818F77CC
:101C60008C930AC0ABE5B0E0EBE5F0E080818F7DBE
:101C70008C9302C083E0898389810F900F900F902D
:101C80000F90CF91DF910895DF93CF9300D000D0D4
:101C9000CDB7DEB78A837C836B8382E089838A81B8
:101CA000833088F48B819C81009769F08A81882F2A
:101CB00090E0880F991FFC01E256FF4F8B819C81B9
:101CC0009183808302C083E0898389810F900F9084
:101CD0000F900F90CF91DF9108951F920F920FB642
:101CE0000F9211242F933F934F935F936F937F93A2
:101CF0008F939F93AF93BF93EF93FF93DF93CF9314
:101D0000CDB7DEB780919E0090919F00009729F09B
:101D1000E0919E00F0919F000995CF91DF91FF9196
:101D2000EF91BF91AF919F918F917F916F915F9153
:101D30004F913F912F910F900FBE0F901F901895CC
:101D40001F920F920FB60F9211242F933F934F9330
:101D50005F936F937F938F939F93AF93BF93EF9313
:101D6000FF93DF93CF93CDB7DEB78091A000909122
:101D7000A100009729F0E091A000F091A100099541
:101D8000CF91DF91FF91EF91BF91AF919F918F9193
:101D90007F916F915F914F913F912F910F900FBE67
:101DA0000F901F9018951F920F920FB60F9211244B
:101DB0002F933F934F935F936F937F938F939F9353
:101DC000AF93BF93EF93FF93DF93CF93CDB7DEB77E
:101DD0008091A2009091A300009729F0E091A200C9
:101DE000F091A3000995CF91DF91FF91EF91BF9101
:101DF000AF919F918F917F916F915F914F913F91A3
:101E00002F910F900FBE0F901F901895DF93CF93D7
:101E1000CDB7DEB72E970FB6F894DEBF0FBECDBF9D
:101E20008A836B834C8319828A81843008F005C1D0
:101E30008B81883008F001C18A81282F30E03E87ED
:101E40002D878D859E858130910509F44FC02D85A4
:101E50003E85223031052CF48D859E85009771F0EA
:101E6000EEC02D853E852230310509F477C08D8581
:101E70009E858330910509F4A9C0E1C08C81282F8B
:101E800030E03C872B878B859C850097D1F02B8594
:101E90003C852130310509F0D2C0ABE3B0E0EBE383
:101EA000F0E08081482F8B81282F30E081E090E0A6
:101EB000022E02C0880F991F0A94E2F7842B8C939C
:101EC000BEC0ABE3B0E0EBE3F0E08081482F8B8154
:101ED000282F30E081E090E0022E02C0880F991F89
:101EE0000A94E2F7809584238C93A9C08C81282FD3
:101EF00030E03A87298789859A850097D1F029852E
:101F00003A852130310509F09AC0A8E3B0E0E8E352
:101F1000F0E08081482F8B81282F30E081E090E035
:101F2000022E02C0880F991F0A94E2F7842B8C932B
:101F300086C0A8E3B0E0E8E3F0E08081482F8B8121
:101F4000282F30E081E090E0022E02C0880F991F18
:101F50000A94E2F7809584238C9371C08C81282F9A
:101F600030E038872F838F8198850097D1F02F81BB
:101F700038852130310509F062C0A5E3B0E0E5E322
:101F8000F0E08081482F8B81282F30E081E090E0C5
:101F9000022E02C0880F991F0A94E2F7842B8C93BB
:101FA0004EC0A5E3B0E0E5E3F0E08081482F8B81EF
:101FB000282F30E081E090E0022E02C0880F991FA8
:101FC0000A94E2F7809584238C9339C08C81282F62
:101FD00030E03E832D838D819E810097C9F02D8155
:101FE0003E812130310559F5A2E3B0E0E2E3F0E0B3
:101FF0008081482F8B81282F30E081E090E0022EF5
:1020000002C0880F991F0A94E2F7842B8C9317C0A3
:10201000A2E3B0E0E2E3F0E08081482F8B81282F3B
:1020200030E081E090E0022E02C0880F991F0A94F0
:10203000E2F7809584238C9302C081E089838981B3
:102040002E960FB6F894DEBF0FBECDBFCF91DF91B5
:102050000895DF93CF93CDB7DEB728970FB6F894E6
:10206000DEBF0FBECDBF8B836C835E834D8382E06A
:102070008A838B81843008F09FC08C81883008F07F
:102080009BC08D819E81009709F496C08B81282F7B
:1020900030E038872F834F81588541305105A9F1B1
:1020A0008F8198858230910534F42F8138852115F0
:1020B000310571F083C04F8158854230510509F4D4
:1020C00041C08F8198858330910509F458C076C04E
:1020D000E9E3F0E08081282F30E08C81882F90E0C8
:1020E000A90102C0559547958A95E2F7CA0181700A
:1020F00089838981882321F4ED81FE8110825EC06D
:10210000ED81FE8181E0808359C0E6E3F0E08081CB
:10211000282F30E08C81882F90E0A90102C05595CE
:1021200047958A95E2F7CA0181708983898188235E
:1021300021F4ED81FE81108241C0ED81FE8181E0BC
:1021400080833CC0E3E3F0E08081282F30E08C8185
:10215000882F90E0A90102C0559547958A95E2F72E
:10216000CA01817089838981882321F4ED81FE81F0
:10217000108224C0ED81FE8181E080831FC0E0E3F6
:10218000F0E08081282F30E08C81882F90E0A90139
:1021900002C0559547958A95E2F7CA0181708983F7
:1021A0008981882321F4ED81FE81108207C0ED81B1
:1021B000FE8181E0808302C083E08A838A81289641
:1021C0000FB6F894DEBF0FBECDBFCF91DF9108955B
:1021D000DF93CF9300D000D00F92CDB7DEB78A83C4
:1021E0006B8384E089838A81843098F58A81282FE3
:1021F00030E03D832C838C819D8181309105D1F02D
:102200002C813D81223031052CF48C819D810097F9
:1022100061F021C02C813D812230310581F08C811B
:102220009D818330910581F016C0EBE3F0E08B8156
:10223000808311C0E8E3F0E08B8180830CC0E5E38C
:10224000F0E08B81808307C0E2E3F0E08B81808344
:1022500002C085E0898389810F900F900F900F90C5
:102260000F90CF91DF910895DF93CF9300D000D0EE
:1022700000D0CDB7DEB78A837C836B8386E0898309
:102280008A81843008F03FC08B819C810097D9F10E
:102290008A81282F30E03E832D838D819E8181307D
:1022A0009105E1F02D813E81223031052CF48D81A4
:1022B0009E81009761F029C02D813E812230310539
:1022C000A1F08D819E8183309105B1F01EC0E9E3BC
:1022D000F0E08081EB81FC81808317C0E6E3F0E0D1
:1022E0008081EB81FC81808310C0E3E3F0E080819A
:1022F000EB81FC81808309C0E0E3F0E08081EB8129
:10230000FC81808302C087E08983898126960FB68D
:10231000F894DEBF0FBECDBFCF91DF910895DF935C
:10232000CF9300D000D00F92CDB7DEB78A836B83F6
:1023300088E089838A81843008F073C08B8188307B
:1023400008F06FC08A81282F30E03D832C838C8178
:102350009D818130910549F12C813D8122303105EB
:102360002CF48C819D81009761F05DC02C813D81B2
:102370002230310571F18C819D8183309105E9F125
:1023800052C0ABE3B0E0EBE3F0E08081482F8B81FB
:10239000282F30E081E090E0022E02C0880F991FC4
:1023A0000A94E2F784278C933EC0ABE3B0E0EBE302
:1023B000F0E08081482F8B81282F30E081E090E091
:1023C000022E02C0880F991F0A94E2F784278C938B
:1023D0002AC0ABE3B0E0EBE3F0E08081482F8B81D3
:1023E000282F30E081E090E0022E02C0880F991F74
:1023F0000A94E2F784278C9316C0ABE3B0E0EBE3DA
:10240000F0E08081482F8B81282F30E081E090E040
:10241000022E02C0880F991F0A94E2F784278C933A
:1024200002C089E0898389810F900F900F900F90EF
:102430000F90CF91DF910895DF93CF9300D000D01C
:10244000CDB7DEB789836A838981282F30E03C834A
:102450002B838B819C8181309105C1F02B813C8144
:102460002230310511F18B819C81009761F5A7E243
:10247000B0E0E7E2F0E080818F7B8C93A7E2B0E0F0
:10248000E7E2F0E080818F778C931DC0A7E2B0E097
:10249000E7E2F0E0808180648C93A7E2B0E0E7E2BD
:1024A000F0E080818F778C930EC0A7E2B0E0E7E286
:1024B000F0E0808180648C93A7E2B0E0E7E2F0E096
:1024C000808180688C93E6E2F0E08A818083A6E2D6
:1024D000B0E0E6E2F0E0808180688C930F900F908E
:1024E0000F900F90CF91DF910895DF93CF930F92CC
:1024F000CDB7DEB78983A7E2B0E0E7E2F0E09081F4
:102500008981892B8C93A6E2B0E0E6E2F0E080813D
:1025100080648C93E6E2F0E08081829586958695D2
:102520008370882F90E081709070882399F7E4E29F
:10253000F0E080819181969587950F90CF91DF9102
:102540000895DF93CF93CDB7DEB7E6E2F0E01082D7
:10255000CF91DF910895DF93CF93CDB7DEB7E897A2
:102560000FB6F894DEBF0FBECDBF80E090E0A8E4C8
:10257000B2E48DAB9EABAFABB8AF6DA97EA98FA90E
:1025800098AD20E030E04AEF54E40E941F02DC01E5
:10259000CB0189AB9AABABABBCAB69A97AA98BA9D0
:1025A0009CA920E030E040E85FE30E9479038823A3
:1025B0002CF481E090E098AB8FA73FC069A97AA97D
:1025C0008BA99CA920E03FEF4FE757E40E94190335
:1025D00018164CF56DA97EA98FA998AD20E030E0C2
:1025E00040E251E40E941F02DC01CB01BC01CD019D
:1025F0000E944900DC01CB0198AB8FA70FC088EC8B
:1026000090E09EA78DA78DA59EA50197F1F79EA7A7
:102610008DA78FA598A9019798AB8FA78FA598A98B
:10262000009769F714C069A97AA98BA99CA90E948F
:102630004900DC01CB0198AB8FA78FA598A99CA777
:102640008BA78BA59CA50197F1F79CA78BA782E090
:102650000E94951488E20E94951481E00E949514CE
:1026600080E090E0A0E8B0E48FA398A7A9A7BAA75C
:102670006FA178A589A59AA520E030E04AEF54E43F
:102680000E941F02DC01CB018BA39CA3ADA3BEA3C0
:102690006BA17CA18DA19EA120E030E040E85FE32A
:1026A0000E94790388232CF481E090E09AA389A307
:1026B0003FC06BA17CA18DA19EA120E03FEF4FE721
:1026C00057E40E94190318164CF56FA178A589A547
:1026D0009AA520E030E040E251E40E941F02DC01B4
:1026E000CB01BC01CD010E944900DC01CB019AA3C2
:1026F00089A30FC088EC90E098A38F8F8F8D98A14D
:102700000197F1F798A38F8F89A19AA101979AA3B6
:1027100089A389A19AA1009769F714C06BA17CA134
:102720008DA19EA10E944900DC01CB019AA389A33F
:1027300089A19AA19E8F8D8F8D8D9E8D0197F1F726
:102740009E8F8D8F86E00E94951480E090E0A0E837
:10275000BFE3898F9A8FAB8FBC8F698D7A8D8B8DFC
:102760009C8D20E030E04AEF54E40E941F02DC011F
:10277000CB018D8B9E8BAF8BB88F6D897E898F89B6
:10278000988D20E030E040E85FE30E9479038823E1
:102790002CF481E090E09C8B8B8B3FC06D897E890F
:1027A0008F89988D20E03FEF4FE757E40E9419038F
:1027B00018164CF5698D7A8D8B8D9C8D20E030E05C
:1027C00040E251E40E941F02DC01CB01BC01CD01BB
:1027D0000E944900DC01CB019C8B8B8B0FC088ECE5
:1027E00090E09A8B898B89899A890197F1F79A8B66
:1027F000898B8B899C8901979C8B8B8B8B899C897E
:10280000009769F714C06D897E898F89988D0E9421
:102810004900DC01CB019C8B8B8B8B899C89988B2D
:102820008F878F8598890197F1F7988B8F878CE038
:102830000E94951480E090E0A0E8BFE38B879C871E
:10284000AD87BE876B857C858D859E8520E030E0D9
:102850004AEF54E40E941F02DC01CB018F8398876A
:10286000A987BA876F81788589859A8520E030E0CD
:1028700040E85FE30E94790388232CF481E090E034
:102880009E838D833FC06F81788589859A8520E0FE
:102890003FEF4FE757E40E94190318164CF56B857C
:1028A0007C858D859E8520E030E040E251E40E94E9
:1028B0001F02DC01CB01BC01CD010E944900DC01FB
:1028C000CB019E838D830FC088EC90E09C838B832B
:1028D0008B819C810197F1F79C838B838D819E81F5
:1028E00001979E838D838D819E81009769F714C027
:1028F0006F81788589859A850E944900DC01CB012A
:102900009E838D838D819E819A83898389819A811B
:102910000197F1F79A838983E8960FB6F894DEBFA2
:102920000FBECDBFCF91DF910895DF93CF93CDB789
:10293000DEB76D970FB6F894DEBF0FBECDBF8D8F9B
:1029400081E060E040E00E94060F81E062E040E04C
:102950000E94060F81E061E041E00E94060F8D8D2C
:1029600082958F70982F917082E064E0492F0E94C9
:10297000060F8D8D829586958770982F917082E0D5
:1029800065E0492F0E94060F8D8D8295869586956C
:102990008370982F917082E066E0492F0E94060FA5
:1029A0008D8D982F991F9927991F82E067E0492FF5
:1029B0000E94060F81E061E040E00E94060F80E087
:1029C00090E0A0E8BFE3898F9A8FAB8FBC8F698DB1
:1029D0007A8D8B8D9C8D20E030E04AEF54E40E948C
:1029E0001F02DC01CB018D8B9E8BAF8BB88F6D8965
:1029F0007E898F89988D20E030E040E85FE30E9477
:102A0000790388232CF481E090E09C8B8B8B3FC072
:102A10006D897E898F89988D20E03FEF4FE757E4DD
:102A20000E94190318164CF5698D7A8D8B8D9C8D3B
:102A300020E030E040E251E40E941F02DC01CB01C3
:102A4000BC01CD010E944900DC01CB019C8B8B8B2A
:102A50000FC088EC90E09A8B898B89899A890197BD
:102A6000F1F79A8B898B8B899C8901979C8B8B8B37
:102A70008B899C89009769F714C06D897E898F893D
:102A8000988D0E944900DC01CB019C8B8B8B8B893C
:102A90009C89988B8F878F8598890197F1F7988B00
:102AA0008F878D8D982F917082E064E0492F0E946E
:102AB000060F8D8D8695982F917082E065E0492FE5
:102AC0000E94060F8D8D86958695982F917082E0D5
:102AD00066E0492F0E94060F8D8D86958695869516
:102AE000982F917082E067E0492F0E94060F81E0E5
:102AF00061E041E00E94060F80E090E0A0E8BFE3C3
:102B00008B879C87AD87BE876B857C858D859E85F1
:102B100020E030E04AEF54E40E941F02DC01CB01C8
:102B20008F839887A987BA876F81788589859A85E9
:102B300020E030E040E85FE30E94790388232CF432
:102B400081E090E09E838D833FC06F817885898589
:102B50009A8520E03FEF4FE757E40E9419031816CB
:102B60004CF56B857C858D859E8520E030E040E2CC
:102B700051E40E941F02DC01CB01BC01CD010E9487
:102B80004900DC01CB019E838D830FC088EC90E06F
:102B90009C838B838B819C810197F1F79C838B8332
:102BA0008D819E8101979E838D838D819E8100976B
:102BB00069F714C06F81788589859A850E944900DC
:102BC000DC01CB019E838D838D819E819A838983D5
:102BD00089819A810197F1F79A83898381E061E085
:102BE00040E00E94060F6D960FB6F894DEBF0FBE50
:102BF000CDBFCF91DF910895DF93CF93CDB7DEB7EF
:102C00006D970FB6F894DEBF0FBECDBF8D8F81E0FC
:102C100060E041E00E94060F81E062E040E00E9437
:102C2000060F81E061E041E00E94060F8D8D8295E4
:102C30008F70982F917082E064E0492F0E94060FF8
:102C40008D8D829586958770982F917082E065E0D2
:102C5000492F0E94060F8D8D8295869586958370EB
:102C6000982F917082E066E0492F0E94060F8D8DAB
:102C7000982F991F9927991F82E067E0492F0E949A
:102C8000060F81E061E040E00E94060F80E090E0E6
:102C9000A0E8BFE3898F9A8FAB8FBC8F698D7A8D47
:102CA0008B8D9C8D20E030E04AEF54E40E941F029F
:102CB000DC01CB018D8B9E8BAF8BB88F6D897E89AC
:102CC0008F89988D20E030E040E85FE30E9479032F
:102CD00088232CF481E090E09C8B8B8B3FC06D8926
:102CE0007E898F89988D20E03FEF4FE757E40E945F
:102CF000190318164CF5698D7A8D8B8D9C8D20E00B
:102D000030E040E251E40E941F02DC01CB01BC0133
:102D1000CD010E944900DC01CB019C8B8B8B0FC045
:102D200088EC90E09A8B898B89899A890197F1F7D1
:102D30009A8B898B8B899C8901979C8B8B8B8B8938
:102D40009C89009769F714C06D897E898F89988D59
:102D50000E944900DC01CB019C8B8B8B8B899C8969
:102D6000988B8F878F8598890197F1F7988B8F873C
:102D70008D8D982F917082E064E0492F0E94060F9C
:102D80008D8D8695982F917082E065E0492F0E9485
:102D9000060F8D8D86958695982F917082E066E05E
:102DA000492F0E94060F8D8D869586958695982FC2
:102DB000917082E067E0492F0E94060F81E061E098
:102DC00041E00E94060F80E090E0A0E8BFE38B871F
:102DD0009C87AD87BE876B857C858D859E8520E031
:102DE00030E04AEF54E40E941F02DC01CB018F83E4
:102DF0009887A987BA876F81788589859A8520E029
:102E000030E040E85FE30E94790388232CF481E0FE
:102E100090E09E838D833FC06F81788589859A85F8
:102E200020E03FEF4FE757E40E94190318164CF5D6
:102E30006B857C858D859E8520E030E040E251E405
:102E40000E941F02DC01CB01BC01CD010E944900A0
:102E5000DC01CB019E838D830FC088EC90E09C83C6
:102E60008B838B819C810197F1F79C838B838D8170
:102E70009E8101979E838D838D819E81009769F746
:102E800014C06F81788589859A850E944900DC018C
:102E9000CB019E838D838D819E819A8389838981D5
:102EA0009A810197F1F79A83898381E061E040E09C
:102EB0000E94060F6D960FB6F894DEBF0FBECDBF11
:102EC000CF91DF910895DF93CF93CDB7DEB72797EA
:102ED0000FB6F894DEBF0FBECDBF9C838B836D838E
:102EE0004E832F838D81882F90E0880F991F880F44
:102EF000991F880F991F89838981805C0E9495148E
:102F00001A820EC08A81282F30E08B819C81FC01BF
:102F1000E20FF31F80810E94FC158A818F5F8A83F4
:102F20008A81883078F38E816F810E94A3178D810A
:102F30000E94FC1527960FB6F894DEBF0FBECDBFDA
:102F4000CF91DF910895DF93CF9300D0CDB7DEB757
:102F500089836A8399818A81890F80580E94951498
:102F60000F900F90CF91DF910895DF93CF9300D012
:102F700000D0CDB7DEB79C838B831A8219828B81F8
:102F80009C810097D9F00EC08981282F30E08B8179
:102F90009C81FC01E20FF31F80810E94FC15898156
:102FA0008F5F89838981282F30E08B819C81FC0190
:102FB000E20FF31F8081882339F702C081E08A8302
:102FC0008A810F900F900F900F90CF91DF9108950D
:102FD000EF92FF920F931F93DF93CF93CDB7DEB79E
:102FE00060970FB6F894DEBF0FBECDBF6D877E87AA
:102FF0008F87988B19861A861B861C8681E090E045
:10300000A0E0B0E08D839E83AF83B88719821A82D7
:103010001B821C828D859E85AF85B8890097A1058E
:10302000B10521F480E30E94FC156AC08D859E8560
:10303000AF85B889BB230CF063C08DE20E94FC15FC
:103040008D859E85AF85B889B095A0959095819521
:103050009F4FAF4FBF4F8D879E87AF87B88B50C0B4
:1030600089859A85AB85BC852AE030E040E050E058
:10307000BC01CD010E94861A7B018C018D859E8545
:10308000AF85B8892AE030E040E050E0BC01CD01D6
:103090000E94B91ADC01CB018E0D9F1DA01FB11F2C
:1030A00089879A87AB87BC8789859A85AB85BC85DC
:1030B0000097A105B10591F48D819E81AF81B885FE
:1030C0002AE030E040E050E0BC01CD010E94861AC9
:1030D000DC01CB018D839E83AF83B8878D859E8570
:1030E000AF85B8892AE030E040E050E0BC01CD0176
:1030F0000E94B91ADA01C9018D879E87AF87B88B04
:103100008D859E85AF85B8890097A105B10509F029
:10311000A7CF44C089859A85AB85BC852AE030E07D
:1031200040E050E0BC01CD010E94B91ADC01CB01A6
:10313000805D0E94FC1589859A85AB85BC852AE057
:1031400030E040E050E0BC01CD010E94B91ADA0144
:10315000C90189879A87AB87BC8789859A85AB85A2
:10316000BC850097A105B105C9F48D819E81AF8111
:10317000B8858A309105A105B10584F081E090E021
:10318000A0E0B0E089839A83AB83BC838D819E816C
:10319000AF81B88589879A87AB87BC8729853A85AF
:1031A0004B855C8589819A81AB81BC812817390761
:1031B0004A075B0709F0AECF60960FB6F894DEBF02
:1031C0000FBECDBFCF91DF911F910F91FF90EF9078
:1031D0000895DF93CF93CDB7DEB781E00E949514B9
:1031E000CF91DF910895DF93CF93CDB7DEB70E94E3
:1031F0005E090E94A3050E9476070E94AB1280E040
:1032000066E00E941C120E94CB0680E00E947512AC
:103210009093A5008093A40083E066E040E00E94C4
:10322000060F82E063E040E00E94060F1CC083E0CE
:1032300066E041E00E94060F82E063E041E00E9408
:10324000060F80E00E94E90680E461E00E94A31777
:1032500080E690E00E94B51780E00E94751290937E
:10326000A5008093A4008091A4009091A5008634CD
:103270009105E8F60E94E91832C080E060E00E9403
:10328000A3178CE690E00E94B51780E06EE00E94E4
:10329000A3178091A4009091A500CC01A0E0B0E01C
:1032A000BC01CD010E94E81780E460E00E94A317F2
:1032B00080E890E00E94B51780E46CE00E94A317BC
:1032C0008CE890E00E94B5170E94771980E00E9478
:1032D00075129093A5008093A4000E94141A809107
:1032E000A4009091A5008634910538F28ECFDF932B
:1032F000CF9300D00F92CDB7DEB780E00E94751259
:103300009093A5008093A40080E06EE00E94A31734
:103310008091A4009091A500CC01A0E0B0E0BC0198
:10332000CD010E94E8178091A4009091A50024E1AE
:1033300030E0B9010E94A51ACB0189838981282F29
:1033400030E03B832A838A819B8182309105B9F1E9
:103350002A813B812330310554F48A819B81009777
:10336000B1F02A813B8121303105E9F057C08A81D3
:103370009B8184309105D9F12A813B81243031052C
:1033800054F18A819B8185309105E9F147C08FEF27
:103390000E94E9060E9416078093A7008091A7006B
:1033A0000E9411083BC088EC0E94E9060E941607A3
:1033B0008093A7008091A7000E9411082FC086E982
:1033C0000E94E9060E9416078093A7008091A7003B
:1033D0000E94110823C084E60E94E9060E94160795
:1033E0008093A7008091A7000E94110817C082E374
:1033F0000E94E9060E9416078093A7008091A7000B
:103400000E9411080BC082E30E94E9060E94160781
:103410008093A7008091A7000E9411080F900F9041
:103420000F90CF91DF910895DF93CF9300D0CDB768
:10343000DEB780E00E9475129093A5008093A400EF
:1034400080E06EE00E94A3178091A4009091A500F7
:10345000CC01A0E0B0E0BC01CD010E94E81786EAF3
:1034600090E00E9416068091A600282F30E03A8353
:10347000298389819A818330910561F129813A817B
:10348000243031055CF489819A8181309105B1F055
:1034900029813A8122303105B9F033C089819A817E
:1034A0008530910519F129813A8125303105C4F023
:1034B00089819A8186309105F9F023C082E060E02D
:1034C00041E00E94060F1DC082E060E040E00E94E3
:1034D000060F17C082E061E041E00E94060F11C0B4
:1034E00082E061E040E00E94060F0BC082E062E0F3
:1034F00041E00E94060F05C082E062E040E00E94C9
:10350000060F0F900F90CF91DF910895629FD00129
:10351000739FF001829FE00DF11D649FE00DF11D8E
:10352000929FF00D839FF00D749FF00D659FF00D3D
:103530009927729FB00DE11DF91F639FB00DE11D2A
:10354000F91FBD01CF0111240895AA1BBB1B51E136
:1035500007C0AA1FBB1FA617B70710F0A61BB70B03
:10356000881F991F5A95A9F780959095BC01CD01A8
:10357000089597FB092E05260ED057FD04D014D0D0
:103580000AD0001C38F450954095309521953F4F56
:103590004F4F5F4F0895F6F7909580957095619520
:1035A0007F4F8F4F9F4F0895A1E21A2EAA1BBB1B7E
:1035B000FD010DC0AA1FBB1FEE1FFF1FA217B307FF
:1035C000E407F50720F0A21BB30BE40BF50B661F15
:1035D000771F881F991F1A9469F7609570958095D9
:1035E00090959B01AC01BD01CF0108952F923F92B0
:1035F0004F925F926F927F928F929F92AF92BF9203
:10360000CF92DF92EF92FF920F931F93CF93DF93AE
:10361000CDB7DEB7CA1BDB0B0FB6F894DEBF0FBE0B
:10362000CDBF09942A88398848885F846E847D8458
:103630008C849B84AA84B984C884DF80EE80FD805A
:103640000C811B81AA81B981CE0FD11D0FB6F894D0
:0E365000DEBF0FBECDBFED010895F894FFCF91
:10365E00414C41524D2021202120210054454D50F6
:10366E0045524154555245203D20202020206300D4
:10367E00464952452053544154453A005354414211
:0C368E004C45000000000000000000009F
:00000001FF
